:020000040800F2
:10000000A005002045010008D1130008D313000803
:10001000D7130008DB130008DF13000800000000FE
:10002000000000000000000000000000E3130008D2
:10003000E513000800000000E7130008E9130008BA
:100040005F0100085F0100085F0100085F01000810
:100050005F0100085F0100085F0100085F01000800
:100060005F0100085F0100085F0100085F010008F0
:100070005F0100085F0100085F0100085F010008E0
:100080005F0100085F0100085F0100085F010008D0
:100090005F0100085F0100085F0100085F010008C0
:1000A0005F0100085F0100085F0100085F010008B0
:1000B0005F0100085F0100085F0100085F010008A0
:1000C0005F0100085F0100085F0100085F01000890
:1000D0005F01000825140008451400085F010008AE
:1000E000452100085F0100085F0100085F0100086A
:1000F0005F0100085F0100085F0100085F01000860
:100100005F0100085F0100085F0100085F0100084F
:100110005F0100085F0100085F0100085F0100083F
:100120005F0100085F0100085F0100085F0100082F
:10013000DFF80CD002F046F80048004755130008DD
:10014000A00500200648804706480047FEE7FEE776
:10015000FEE7FEE7FEE7FEE7FEE7FEE7FEE7FEE777
:1001600047020008310100080CB500200190009002
:100170006C48006840F480306A49086000BF6948F4
:10018000006800F4003000900198401C0190009835
:1001900018B90198B0F5A06FF1D16248006800F479
:1001A000003010B10120009001E000200090009884
:1001B000012843D15C48006840F010005A490860AB
:1001C0000846006820F0030008600846006840F018
:1001D0000200086053484068524948600846406839
:1001E00048600846406840F48060486008464068BF
:1001F00020F47C1048600846406840F4E8104860ED
:100200000846006840F08070086000BF45480068FC
:1002100000F000700028F9D04248406820F0030048
:10022000404948600846406840F00200486000BF0E
:100230003C48406800F00C000828F9D10CBD10B50E
:10024000FFF792FF10BD10B53648006840F001007E
:1002500034490860084640683449084031494860DC
:1002600008460068324908402E4908600846006880
:1002700020F4802008600846406820F4FE004860B2
:100280004FF41F008860FFF7DAFF4FF00060294944
:10029000086010BD10B5002100200022214B5B68D2
:1002A00003F00C0121B1042906D0082928D107E068
:1002B000214B224C236027E01F4B204C236023E07E
:1002C000184B5B6803F47010164B5B6803F48032C4
:1002D000022303EB904022B9194B4343174C236090
:1002E0000DE0104B5B6803F4003323B1144B434320
:1002F000124C236003E0104B4343104C236003E097
:100300000D4B0E4C236000BF00BF064B5B68C3F370
:1003100003130C4CE15C094B1B68CB40074C23607A
:1003200010BD000000100240002002400000FFF855
:10033000FFFFF6FE08ED00E000127A00000000204A
:1003400000093D000400002031490143314A116099
:10035000704770B5002100230F22C47804B32D4CE0
:10036000246804F4E064C4F5E064210AC1F10403E4
:10037000CA40447804FA03F1847814402143090107
:10038000254C0678A155047804F01F050124AC40E3
:1003900005786D11AD0005F1E025C5F8004109E0D3
:1003A000047804F01F050124AC401C4D067876113A
:1003B00045F8264070BD1A4A0A400243154B1B1FE0
:1003C0001A60704739B1134A121D12680243114B6B
:1003D0001B1D1A6006E00F4A121D126882430D4B66
:1003E0001B1D1A607047042808D14FF0E0210969ED
:1003F00041F004014FF0E022116107E04FF0E021ED
:10040000096921F004014FF0E022116170470000FA
:100410000000FA050CED00E000E400E080E100E0FF
:1004200080FFFF1F002044490860091D0860091D66
:100430000860091D086041483F4914310860704751
:1004400000213D498279002A3AD00A4612680368A1
:100450009A430B461A600A1D126803689A430B1DE3
:100460001A60027911440A6803681A430A60324A22
:100470000832126803689A432F4B08331A601A1D1A
:10048000126803689A432C4B0C331A604279102A85
:100490000ED11A1F126803681A43274B08331A60DB
:1004A0001A1D126803681A43234B0C331A600DE0BF
:1004B0002149427911440A6803681A430A6005E039
:1004C000027911440A6803689A430A607047002160
:1004D000016001710C214171002181717047164941
:1004E000103109680143144A103211607047014607
:1004F0000020114A143212680A400AB1012000E0BB
:10050000002070470C4914310860704701460020F4
:100510000022094B1B6803EA0102074B14331B68D6
:100520000B4013B10AB1012000E0002070470249DE
:10053000143108607047000000040140FFFF0F0005
:1005400010B50446CC48844208D10121042000F0B3
:100550002DFB0021042000F029FB46E0C74884421F
:1005600008D10121082000F021FB0021082000F023
:100570001DFB3AE0C248844208D10121102000F05E
:1005800015FB0021102000F011FB2EE0BD48844235
:1005900008D10121202000F009FB0021202000F0DB
:1005A00005FB22E0B848844208D10121402000F038
:1005B000FDFA0021402000F0F9FA16E0B348844229
:1005C00008D10121802000F0F1FA0021802000F004
:1005D000EDFA0AE0AE48844207D10121801500F00F
:1005E000E5FA0021A01500F0E1FA10BD10B50121D7
:1005F000084600F0DBFA0021012000F0D7FA10BD18
:100600002DE9F041024600250026002000230024A9
:10061000002791F803C00CF00F0591F803C00CF00F
:10062000100CBCF1000F03D091F802C04CEA050594
:1006300091F800C0BCF1000F31D0146800202BE00D
:100640004FF0010C0CFA00F3B1F800C00CEA0306FD
:100650009E4220D183004FF00F0C0CFA03F7BC43ED
:1006600005FA03FC4CEA040491F803C0BCF1280F1E
:1006700006D14FF0010C0CFA00FCC2F814C00AE0DD
:1006800091F803C0BCF1480F05D14FF0010C0CFAF2
:1006900000FCC2F810C0401C0828D1D31460B1F887
:1006A00000C0BCF1FF0F34DD546800202EE000F1E3
:1006B000080C4FF0010808FA0CF3B1F800C00CEA7E
:1006C00003069E4221D183004FF00F0C0CFA03F772
:1006D000BC4305FA03FC4CEA040491F803C0BCF1E6
:1006E000280F05D100F1080C08FA0CF8C2F81480A4
:1006F00091F803C0BCF1480F07D100F1080C4FF08E
:10070000010808FA0CF8C2F81080401C0828CED363
:100710005460BDE8F0814FF6FF71018002218170C5
:100720000421C17070470246002093680B400BB152
:10073000012000E0002070470146886880B27047C1
:1007400002460020D3680B400BB1012000E00020DE
:1007500070470146C86880B27047016170474161C7
:1007600070470AB1016100E041617047C1607047A4
:100770004FF480320A4382618161826182698269B9
:10078000704702460020434B18684FF680731840AC
:1007900040EA021008433F4B186070473E49C86169
:1007A0007047F0B50A46002300240021002500F020
:1007B0000046B6F1004F02D1364EF16901E0354EE8
:1007C0007168C0F3034583B200F44016B6F5401FCC
:1007D00008D121F070612F4E766826F070662D4F9B
:1007E0007E6012E000F48016B6F5801F06D1032665
:1007F00006FA05F4A14341F0706106E0460D3601AA
:1008000003FA06F6B14341F0706122B1460D36019C
:1008100003FA06F6314300F00046B6F1004F02D16C
:100820001C4EF16101E01B4E7160F0BD30B500223D
:100830008B071C0F0F2303FA04F2164B08338C109E
:1008400053F824309343134C08348D1044F825306A
:1008500023468C1053F824308C07240F00FA04F43C
:1008600023430C4C08348D1044F8253030BD0A4920
:10087000DC3108607047000000080140000C0140B6
:10088000001001400014014000180140001C01400C
:10089000002001400000014000002042DF480068C5
:1008A00040F00100DD49086008464068DC49084026
:1008B000DA49486008460068DA490840D7490860C4
:1008C0000846006820F4802008600846406820F44C
:1008D000FE0048604FF41F0088607047CF490968E8
:1008E00021F48031CD4A11601146096821F480213C
:1008F0001160B0F5803F03D0B0F5802F0ED106E037
:10090000C649096841F48031C44A116007E0C3490F
:10091000096841F4A021C14A116000E000BF00BF96
:10092000704710B501460022002300204A11012A19
:1009300002D1BA4C236806E0022A02D1B74C236ADE
:1009400001E0B64C636A01F01F02012494401C4090
:100950000CB1012000E0002010BD38B5002000904F
:100960000024002500BF3120FFF7DBFF054600987B
:10097000401C00900098B0F5A06F01D0002DF2D07F
:100980003120FFF7CEFF08B1012400E0002420460B
:1009900038BD01460020A14A106820F0F80040EA66
:1009A000C10010607047A0490860704702460020EF
:1009B0009A4B586820F47C1042EA01031843974B85
:1009C0005860704798490866704701460020934A6E
:1009D000506820F003000843506070478F4840681B
:1009E00000F00C007047014600208C4A506820F04F
:1009F000F00008435060704701460020874A506865
:100A000020F4E06008435060704701460020834AAC
:100A1000506820F4605040EAC1005060704729B12E
:100A20007E4A527A02437D4B5A7204E07B4A527AE4
:100A300082437A4B5A7270477B49D83108607047BD
:100A400001460020754A506820F440400843506039
:100A500070470021714A20321170704A82F82010CC
:100A6000012802D004280AD104E001216B4A203277
:100A7000117005E00521694A2032117000E000BFC5
:100A800000BF70476949086070476449096A0143BB
:100A9000624A11627047654944390860704730B551
:100AA00000210022002400235C4D6D6805F00C013C
:100AB00021B1042905D0082923D105E05C4D05604A
:100AC00022E05B4D05601FE0544D6D6805F4701227
:100AD000524D6D6805F48034022505EB92421CB935
:100AE000544D554305600BE04C4D6D6805F40035E1
:100AF0001DB1504D5543056002E04D4D5543056015
:100B000002E04B4D056000BF00BF444D6D6805F02D
:100B1000F0010909484D6B5C0568DD4045603F4DBB
:100B20006D6805F4E061090A434D6B5C4568DD4082
:100B300085603A4D6D6805F46051C90A3E4D6B5CA5
:100B40004568DD40C560354D6D6805F44041890B51
:100B50003A4D6B5CC568B5FBF3F5056130BD29B155
:100B60002E4A526902432D4B5A6104E02B4A5269C6
:100B700082432A4B5A61704729B1284A926902433D
:100B8000264B9A6104E0254A92698243234B9A617D
:100B9000704729B1214AD2690243204BDA6104E04F
:100BA0001E4AD26982431D4BDA61704729B11B4A44
:100BB000D2680243194BDA6004E0184AD2688243D3
:100BC000164BDA60704729B1144A12690243134B7D
:100BD0001A6104E0114A12698243104B1A6170478E
:100BE00012494039086070470F49C86470470B4983
:100BF000C87170470948406A40F0807007494862F0
:100C0000704701460020054A92680A400AB1012057
:100C100000E00020704701498872704700100240D0
:100C20000000FFF8FFFFF6FE00004242800442424F
:100C300000127A0000093D0014000020240000206A
:100C400010B50446BE48844208D101218014FFF744
:100C5000ADFF0021A014FFF7A9FF16E0B9488442B8
:100C600008D101210014FFF7AEFF00212014FFF787
:100C7000AAFF0AE0B448844207D10121C013FFF75C
:100C8000A2FF0021E013FFF79EFF10BD10B5002268
:100C9000028802F441520B884C8823438C882343FA
:100CA000CC8823430C8923434C8923438C892343D9
:100CB000CC8923431A430280838B4FF2FF74234075
:100CC00083830B8A038210BD2DE9F04F85B0054662
:100CD0000C464FF0000902274FF000084FF0010BBF
:100CE0000026B246A88B4FF240010840A88302209C
:100CF0002884B5F81C90A068022801D100BF38E014
:100D0000A08810B94FF0010B01E04FF0020B8D48A5
:100D1000854200D100E000BF6846FFF7C0FEDDF865
:100D200000A0E088B0F5007F0AD14FEA1A2000EB5E
:100D300080004000A168B0FBF1F0401D86B20BE0DE
:100D40004FEA4B10BAFBF0F000EB80004000A168C6
:100D5000B0FBF1F0401D86B20A20B6FBF0F606F0BB
:100D60000108A6EB0800C0F34F074FF6FF7000EA3A
:100D70000828022F01DBFF2F02DD02274FF00008B9
:100D8000E08840EA080038432884A088A189084305
:100D9000618808432188084340F4006040EA09095B
:100DA000A5F81C9005B0BDE8F08F002101804180BE
:100DB0008180C180018141818181C18107210182BE
:100DC00070470021018041808180C18002218160C3
:100DD00000218181704721B1028842F040020280E7
:100DE00004E002884FF6BF731A400280704721B1B9
:100DF000828B42F48062828304E0828B4FF6FF3361
:100E00001A408283704730B5002400230C1101255D
:100E1000A540ABB21AB185881D43858002E0858864
:100E20009D43858030BD1AB183880B43838002E0E7
:100E300083888B438380704781817047014688890E
:100E400070474FF6FF62914204D0028842F48072EC
:100E5000028004E002884FF6FF631A400280704768
:100E600021B1828842F00402828004E082884FF639
:100E7000FB731A408280704702884FF2FF731A405A
:100E8000028002880A4302807047018841F4805141
:100E90000180704721B1028842F40052028004E0D0
:100EA00002884DF6FF731A40028070470246002008
:100EB000012901D0108B00E0908A70470146088A12
:100EC0007047B1F5804F04D1028842F4804202801D
:100ED00004E002884BF6FF731A4002807047024616
:100EE000002013890B400BB1012000E00020704767
:100EF000CA4302817047F0B5024600200024002357
:100F0000002501F00F070126BE40B4B20B110126E7
:100F10009E40B3B2968806EA03051689264016B1AC
:100F20000DB1012000E00020F0BD10B5002201F05D
:100F30000F040123A3409AB2D343038110BD0000E4
:100F40000030014000380040003C004010B504462D
:100F5000FB48844209D101218803FFF727FE0021C5
:100F60004FF48040FFF722FE32E0F648844209D178
:100F700001214804FFF727FE00214FF40030FFF75E
:100F800022FE25E0F048844209D101218804FFF7C0
:100F90001AFE00214FF48020FFF715FE18E0EB4801
:100FA000844209D10121C804FFF70DFE00214FF44E
:100FB0000020FFF708FE0BE0E548844208D101213C
:100FC0000805FFF700FE00214FF48010FFF7FBFD3E
:100FD00010BD2DE9F04786B005460E460024A24616
:100FE00000BFA1460027B08900B100BF2F462C8A60
:100FF0004CF6FF700440F08804432C82AC894EF616
:10100000F3100440B08831890843718908430443D0
:10101000AC81AC8A4FF6FF400440B0890443AC82F7
:1010200001A8FFF73CFDC648874202D1DDF810A0B9
:1010300001E0DDF80CA0A88900F4004040B10AEB03
:10104000CA0000EB0A1031684900B0FBF1F807E074
:101050000AEBCA0000EB0A1031688900B0FBF1F816
:101060006420B8FBF0F004012009642101FB108921
:10107000A88900F4004040B1322000EBC900B0FB69
:10108000F1F000F00700044308E0322000EB091003
:101090006421B0FBF1F000F00F0004432C8106B096
:1010A000BDE8F0874FF41651016000218180C180B6
:1010B00001810C21418100218181704710B50246D8
:1010C0000020108A4FF2FF0318400B884C882343FE
:1010D0008C882343CC8823431843108210BD002101
:1010E000018041808180C180704721B1828942F4B2
:1010F0000052828104E082894DF6FF731A4082819A
:101100007047F0B50346002400260025002040F675
:101110006A17B94200D100BF1846C1F3421401F06A
:101120001F06012707FA06F5012C01D10C3004E057
:10113000022C01D1103000E014301AB107682F439F
:10114000076002E00768AF430760F0BD1AB1838A09
:101150000B43838202E0838A8B4383827047028A37
:101160004FF6F0731A400282028A0A4302827047E5
:1011700082894FF2FF731A40828182890A438281F9
:10118000704721B1828942F00202828104E08289A3
:101190004FF6FD731A4082817047028A4FF6DF7363
:1011A0001A400282028A0A430282704721B1028AEF
:1011B00042F48042028204E0028A4BF6FF731A4036
:1011C00002827047C1F30802828070470146888816
:1011D000C0F308007047818941F0010181817047A7
:1011E000028BD2B20283028B42EA01220283704751
:1011F000028B02F47F420283028B0A430283704710
:1012000021B1828A42F02002828204E0828A4FF673
:10121000DF731A408282704721B1828A42F0100245
:10122000828204E0828A4FF6EF731A40828270470E
:1012300021B1828A42F00802828204E0828A4FF65B
:10124000F7731A408282704721B1828942F40042CA
:10125000828103E08289C2F30E028281704721B14C
:10126000828A42F40062828204E0828A4FF2FF7333
:101270001A4082827047828A4FF6FB731A4082823C
:10128000828A0A438282704721B1828A42F0020236
:10129000828204E0828A4FF6FD731A408282704790
:1012A00002460020B1F5007F00D100BF13880B403B
:1012B0000BB1012000E00020704701F40072B2F58C
:1012C000007F00D100BFCA430280704770B502465C
:1012D000002400230025002040F66A16B14200D108
:1012E00000BFC1F3421501F01F03012606FA03F304
:1012F000012D02D19689334006E0022D02D1168AD3
:10130000334001E0968A33400C12012606FA04F4B9
:101310001688344013B10CB1012000E0002070BDEC
:1013200010B50022002340F66A14A14200D100BF8C
:101330000A1201249440A3B2DC43048010BD0000D3
:10134000003801400044004000480040004C00408C
:10135000005000401A4800684FF47A72B0FBF2F176
:10136000B1F1807F00D31DE021F07F40401E4FF09F
:10137000E022506150170F22002807DA13071D0ED4
:10138000104B00F00F04241F1D5503E013071C0E23
:101390000D4B1C5400BF00204FF0E022906107204D
:1013A000106100BF00F060F900F007FE00BFFEE72B
:1013B0000649088000BF054909880029FBD170470C
:1013C0000000002018ED00E000E400E0280000200C
:1013D000704700BFFEE700BFFEE700BFFEE700BFAB
:1013E000FEE77047704770476A480088401E6949A9
:1013F00008806948B0F90000B0F1FF3F05DB66489E
:101400000088401E00B2644908806448B0F90000BA
:10141000B0F1FF3F05DB61480088401E00B25F4924
:101420000880704710B540F225515D48FFF74EFF28
:1014300038B15B48FFF7CAFEC4B2214659A000F09C
:10144000FFFE10BD70B5002440F225515648FFF74D
:101450003DFF00287ED05448FFF7B8FEC5B20A2DE4
:1014600007D0524801780078401C504A107050480C
:1014700045540A2D6ED14E480078492803D04C4877
:101480000078502806D14A484078522802D10120DD
:101490004849087047480078012809D146A14448C6
:1014A00000F07EFE20B100204249087046490870D5
:1014B00046A13F4800F074FE48B141F2883401E093
:1014C000601E84B2002CFBDC41A000F0B9FE44A1F8
:1014D000374800F065FE10B100204549087045A16D
:1014E000334800F05DFE10B101204149087045A16C
:1014F0002F4800F055FE10B10020474908704648BB
:10150000007801282BD12A480078412827D10024CF
:101510000AE0002126480079303800EB00103F4AED
:1015200010440155601C84B2112CF2DB00240CE045
:101530001F49A01D095C1E480079303800EB0010DF
:10154000364A10440155601C84B21949A01D085C3C
:101550000D2800E01DE0EBD131A000F071FE33A1B9
:10156000134800F01DFE28B101202B4908702CA063
:1015700000F066FE002404E000200D490855601CC0
:1015800084B20A4800788442F6DB0025002007492F
:10159000087070BD280000203400002038000020B2
:1015A0000038014025630000004400402A0000206C
:1015B000940100203A0000204150522B63616C6C72
:1015C0005F656E640D0000003B00002049490D007E
:1015D0004150542B535050383838380D0A00000011
:1015E0004150522B68656C705F6F66660D0000009D
:1015F000360000204150522B68656C705F6F6E0D95
:10160000000000004150522B4368616E67655F46E1
:10161000696E6973680D00002C0000203C000020FA
:101620004150542B4F4B310D0A0000004150522BBA
:101630004368616E67655F426567696E0D00000013
:1016400008B54FF4E060FEF77FFE26208DF800001D
:1016500000208DF8010001208DF802008DF80300B4
:101660006846FEF776FE08BD00B585B00121480446
:10167000FFF78FFA01210420FFF77EFA0420ADF86E
:10168000100018208DF8130003208DF8120004A913
:101690002548FEF7B5FF4FF48060ADF81000042038
:1016A0008DF8130004A92048FEF7AAFF4FF4165046
:1016B00000900020ADF80400ADF80600ADF8080079
:1016C000ADF80C000C20ADF80A0069461748FFF78A
:1016D00080FC012240F225511448FFF712FD012140
:1016E0001248FFF702FDFFF7ABFF05B000BD70B574
:1016F00004460D46E1B20D48FFF764FD00BF4021EE
:101700000A48FFF7CDFD0028F9D0204670BD10B57E
:10171000044600BF20210548FFF7C2FD0028F9D08C
:101720000248FFF753FD10BD00080140004400408F
:101730000CE0042107E0712201E0531EDAB2002A16
:10174000FBDC4B1ED9B20029F5DC401E0028F0D18D
:10175000704710B54FF40051FD48FEF7FEFF4FF4FF
:101760008041FC48FEF7F9FF40F6FF70FFF7E0FF0D
:101770004FF40051F648FEF7F2FF4FF48041F54870
:10178000FEF7EDFF40F6FF70FFF7D2FF10BD10B57A
:101790004FF40051EE48FEF7E0FF4FF48041ED4872
:1017A000FEF7DDFF40F6FF70FFF7C2FF4FF4804108
:1017B000E848FEF7D2FF4FF40051E548FEF7CFFFAF
:1017C00040F6FF70FFF7B4FF4FF48041E148FEF7A9
:1017D000C6FF10BD10B50446DF48B0F90000002870
:1017E0006CDA4FF40051DA48FEF7B9FF072C63D2E8
:1017F000DFE804F06204142639455700D748007822
:10180000012807D1FFF7C3FFD5A000F019FD012083
:10181000D64908700020D64908704EE0D5480078B7
:10182000012809D1FFF795FFD3A000F009FD0020A2
:10183000D0490870D24908700020CD4908703CE0BA
:10184000CC48007801280AD1CD48007838B9FFF794
:1018500080FFCCA000F0F4FC0120C94908700020F2
:10186000C349087029E0C348007820B9FFF771FF29
:10187000C6A000F0E5FC0020BD4908701DE0BD4891
:101880000078012809D1FFF764FFBBA000F0D8FC65
:101890000020B8490870BA4908700020B44908709F
:1018A0000BE0B448007830B941F28830AA4908808A
:1018B0000020AF49087000E000BF3EE04FF4005147
:1018C000A348FEF74AFFE01F052831D2DFE800F009
:1018D000030C151E2700AFA000F0B2FCFFF739FF84
:1018E0000020A349087027E0AEA000F0A9FCFFF794
:1018F00030FF00209E4908701EE0AEA000F0A0FC62
:10190000FFF727FF00209A49087015E0ADA000F00E
:1019100097FCFFF71EFF0020954908700CE0ADA072
:1019200000F08EFCFFF715FF00209149087003E0DE
:1019300000208F49087000BF00BF10BD10B50446DD
:1019400000BF0221A748FFF7CAFA0028F9D02146B4
:10195000A448FFF771FA00BF0121A248FFF7BFFAC0
:101960000028F9D09F48FFF769FAC0B210BD70B5E2
:10197000044610219C48FEF7F2FE4FF400519B48AC
:10198000FEF7EDFE0520FFF7D9FF2046FFF7D6FF53
:101990000020FFF7D3FF054610219348FEF7DDFE38
:1019A000284670BD10B5C520FFF7E1FF10BD30B56A
:1019B00000210022002300BF0BE0002206E0C82324
:1019C00000BF1C1EA3F10103FBD1521C8242F6D3BF
:1019D000491C0529F1D330BD10B54FF400418348AF
:1019E000FEF7BBFE6420FFF7E2FF4FF400417F48A3
:1019F000FEF7B5FE6420FFF7DAFF4FF400417B48A5
:101A0000FEF7ABFE6420FFF7D2FF10217648FEF709
:101A1000A6FE6420FFF7CBFF10217348FEF79DFE62
:101A20006420FFF7C4FF10BD70B505460C461021B9
:101A30006D48FEF794FE4FF400516C48FEF78FFEA0
:101A40000420FFF77BFF2846FFF778FF2046FFF7CB
:101A500075FF10216448FEF780FE70BD70B500254B
:101A600000240BE0B220FFF782FF212801D10125DD
:101A700006E00A20FFF79BFF601CC4B20A2CF1DBD2
:101A800000BF284670BD10B543213520FFF7CCFFBD
:101A900009211C20FFF7C8FF2021BD20FFF7C4FF4C
:101AA00001210820FFF7C0FF0520FFF780FF00217C
:101AB0000820FFF7B9FF0520FFF779FFFFF7CEFFFA
:101AC00008B9002010BDFF21B220FFF7ADFF0621AD
:101AD0003720FFF7A9FF06213720FFF7A5FF0520D4
:101AE000FFF765FF0B211C20FFF79EFF1021292027
:101AF000FFF79AFF0021BD20FFF796FF0120E1E7E5
:101B000070B586B014223A4901A800F037FB0126CF
:101B1000002491E0FFF7A2FF08B900268FE001A89A
:101B2000015DC120FFF780FF0021C320FFF77CFF8C
:101B300004210820FFF778FF0120FFF738FF00217C
:101B40000820FFF771FF0120FFF731FF002562E059
:101B50000014014000200140340000203600002025
:101B60004150542B68656C700D0A00003200002053
:101B7000310000203A00002041542B43470D0A0059
:101B80003B00002041542B43450D0A0041542B4398
:101B9000480D0A004150542B43414C4C5F310D0A13
:101BA000000000004150542B43414C4C5F320D0A61
:101BB000000000004150542B43414C4C5F330D0A50
:101BC000000000004150542B43414C4C5F340D0A3F
:101BD000000000004150542B43414C4C5F350D0A2E
:101BE000000000000030014000080140000C0140EE
:101BF0005423000804EB0410FE490844405D00B97A
:101C00000BE004EB0410FB4A1044415D0520FFF794
:101C10000BFF681CC5B2112DECDB00BF2946B920B3
:101C2000FFF702FFFF21B220FFF7FEFE042137205D
:101C3000FFF7FAFE601CC4B2142CFFF66BAF00BFB6
:101C4000304606B070BD10B50620FFF790FE352176
:101C50001720FFF7E9FE0520FFF7A9FE0620FFF792
:101C600086FE03218920FFF7DFFE0520FFF79FFE98
:101C70004321CF20FFF7D8FE0520FFF798FE022171
:101C8000CB20FFF7D1FE0A211120FFF7CDFEDA4865
:101C90000078402810D100211E20FFF7C5FE0F213B
:101CA0001920FFF7C1FE18211B20FFF7BDFE2C21D4
:101CB0001D20FFF7B9FE0FE000211E20FFF7B4FE44
:101CC0003F211920FFF7B0FE48211B20FFF7ACFE93
:101CD0001F211D20FFF7A8FE0520FFF768FE042145
:101CE000CD20FFF7A1FE4C211720FFF79DFE01201C
:101CF000FFF75DFE0021B920FFF796FE4F21CF20B0
:101D0000FFF792FEFF216F20FFF78EFE10BD10B58A
:101D10000820B9490870FFF796FF0021BD20FFF7A2
:101D200083FE48211720FFF77FFE0520FFF73FFEC7
:101D300080213C20FFF778FE07213E20FFF774FE4C
:101D4000FF213820FFF770FE07213A20FFF76CFED5
:101D500000214020FFF768FE08214220FFF764FEC3
:101D600000214420FFF760FE08214620FFF75CFEBB
:101D70000120FFF71CFE10BD10B5FFF7C8FF10BD16
:101D800070B50024002500BF1DE0FFF7F5FF6420BB
:101D9000FFF70DFEFFF7B4FE28B9FFF71DFE322056
:101DA000FFF705FE0DE00A20FFF701FEFFF76BFECF
:101DB00028B9FFF711FE3220FFF7F9FD01E00125F8
:101DC00003E0601CC4B2052CDFDB00BF284670BDF9
:101DD00008B501214FF49070FEF7CEFE4FF400508D
:101DE000ADF8000003208DF8020010208DF80300EC
:101DF00069468248FEF704FC4FF48040ADF80000CD
:101E000069467F48FEF7FCFB4FF48050ADF80000B8
:101E100069467A48FEF7F4FB4FF400517748FEF725
:101E20009EFC4FF480417648FEF799FC4FF48051B8
:101E30007248FEF794FC08BD00B587B00121080385
:101E4000FEF79AFE01210C20FEF796FE4020ADF829
:101E5000040003208DF8060018208DF8070001A962
:101E60006848FEF7CDFB8020ADF8040001A9654865
:101E7000FEF7C6FB2020ADF8040001A96148FEF77B
:101E8000BFFB4FF40050ADF8040003208DF80600AE
:101E900010208DF8070001A95B48FEF7B1FB102167
:101EA0005848FEF75AFC00215848FEF794FF0020DE
:101EB000ADF808004FF48270ADF80A000020ADF8CC
:101EC0000C000220ADF80E000020ADF810004FF419
:101ED0000070ADF812002820ADF814000020ADF815
:101EE00016000720ADF8180002A94848FEF7CEFEFC
:101EF00001214648FEF76FFF07B000BD1FB5012165
:101F00000846FEF739FE01210820FEF735FE4FF4A2
:101F10008050ADF8000004208DF8030003208DF8F8
:101F2000020069463848FEF76BFB0C210120FEF7E2
:101F30007DFC4FF48050029000208DF80C000C20A6
:101F40008DF80D0001208DF80E0002A8FEF778FA3A
:101F500028208DF8040001208DF805008DF806007A
:101F60008DF8070001A8FEF7F4F91FBD08B501219F
:101F70000C20FEF701FE1020ADF8000003208DF8C4
:101F8000020010208DF8030069461E48FEF738FB5A
:101F90004FF40040ADF8000069461B48FEF730FBE7
:101FA00008BD10B5FFF7E2FFFFF7A8FFFFF744FFFA
:101FB000FFF70EFFFFF710FD10BDFFF7F2FF002047
:101FC000134908705BE01348007801282BD11248B0
:101FD000B0F90000002826DC7D200F4908804FF46E
:101FE00080510648FEF7ACFBC0F10100C4B22246A6
:101FF00014E000003C0000202F00002000140140ED
:102000000020014000080140000C01400030014068
:102010002E00002032000020380000204FF48051B4
:102020005148FEF79EFB51480078102815D003DC7C
:1020300048B1012819D104E0112817D0312814D152
:1020400000E000BF16E0012048490870FFF798FE45
:1020500010B93120454908700CE0FFF7A3FC444952
:10206000087000204149087004E000BF00203F498B
:10207000087000BF00BF3E480078FFF7ABFBA2E747
:1020800010B54FF400513848FEF769FB4FF480411A
:102090003848FEF764FB10BD10B500242B20FFF775
:1020A00066FC3549087000212920FFF7BDFC00219E
:1020B0000220FFF7B9FC3048007800F01000C8B1EA
:1020C000B220FFF754FC212814D1BF20FFF74FFCAA
:1020D00035280FD1BA20FFF74AFC0446002C05DD55
:1020E000042C03DC10202149087006E011201F4950
:1020F000087002E011201D49087000212B20FFF715
:1021000093FC00211C20FFF78FFC00212920FFF702
:102110008BFC00210220FFF787FC00212B20FFF71A
:1021200083FC0021BA20FFF77FFC0021BC20FFF7D1
:102130007BFC01210820FFF777FC00210820FFF736
:1021400073FC10BD10B54FF48050FEF7DFF948B1B5
:10215000FFF7A2FF4FF48050FEF7D4F94FF4805000
:10216000FEF7E5F910BD0000001401402E0000202C
:1021700031000020002001403000002040EA01032F
:102180009B0703D009E008C9121F08C0042AFAD22D
:1021900003E011F8013B00F8013B521EF9D27047F1
:1021A00030B505462A460B4612F8010B13F8014BD1
:1021B00008B1A042F8D01CB1002802D06D1CF1E794
:1021C000284630BD064C074D06E0E06840F00103AC
:1021D00094E8070098471034AC42F6D3FDF7ACFF03
:1021E000682300088823000870B58C1810F8015B7C
:1021F00015F0070301D110F8013B2A1106D110F8A0
:10220000012B03E010F8016B01F8016B5B1EF9D1A3
:102210002B0705D40023521E0DD401F8013BFAE729
:1022200010F8013BCB1A921C03E013F8015B01F894
:10223000015B521EF9D5A142D8D3002070BD000029
:102240000FB4054B10B503A9044A029800F017F823
:1022500010BC5DF814FB0000EF1600089001002090
:1022600002E008C8121F08C1002AFAD1704770475F
:10227000002001E001C1121F002AFBD170472DE9A7
:10228000F84F9946924688460546002706E02528DD
:102290000AD051464A4690476D1C7F1C287800287A
:1022A000F5D13846BDE8F88F002315F8011F184610
:1022B0002E2915D115F8011F04232A290DD06FF0FE
:1022C0002F022978A1F13004092C09D800EB8000F5
:1022D00002EB400008446D1CF3E758F8040B6D1C3A
:1022E0002A78002ADDD0632A07D0732A0FD010463F
:1022F00051464A4690477F1C2AE018F8042B8DF877
:10230000002000218DF801106E46012103E058F8ED
:10231000046B4FF0FF315A074FF0000401D409E07D
:10232000641C84420BDA8C42FADB325D002AF7D15E
:1023300005E0641C8C42FCDB305D0028F9D12744A9
:1023400004E016F8010B51464A469047641EF8D245
:102350006D1CA3E70102030405060708090A0B0028
:10236000000000000000000088230008000000209A
:1023700094010000E8210008E823000894010020EF
:102380000C040000702200081184A24A04680901AC
:10239000020304060708090C6910C5020406081A9E
:1023A000010241400E6C697520736875692064658F
:1023B0006E67180B7A6169206A69616E206209197B
:1023C0000411E46A6965280B63686F6E6720626FA9
:1023D000206427180A6875616775612064750C6947
:0823E000111A6410590B01F8F9
:0400000508000131BD
:00000001FF
